:100000000C949F000C948F160C9464160C94391663
:100010000C94C9000C94C9000C94C9000C94C9003C
:100020000C94C9000C94C9000C94C9000C94C9002C
:100030000C94C9000C94C9000C94C9000C94C9001C
:100040000C94C9000C94C9000C94E51D0C94C900D3
:100050000C94E4160C94BA160C94C9000C94C900C4
:100060000C94C9000C94C9000C94C9000C94C900EC
:100070000C94C9000C94C9000C94C9000C94091884
:100080000C94C9000C94C9000C94C900791B5D1B29
:100090007C1B601B631B661B691B6C1B701B741B2A
:1000A000CE1CD11CC41CC81CE81CE81CD51CD91CC7
:1000B000DF1CE31C601D651D6A1D741DA21DA21DB1
:1000C0007E1D861D8E1D981D000021002400270026
:1000D0002A0000002200250028002B000202020254
:1000E00002020202040404040404040403030303DC
:1000F00003030303010101010101010101020408DD
:1001000010204080010204081020408001020408F1
:1001100010204080010204081020408000000001EF
:100120000200090A000000000403080700000000A4
:1001300000000000000000000000000085261124DF
:100140001FBECFEFD0E4DEBFCDBF11E0A0E0B1E035
:10015000EAECF6E500E00BBF02C007900D92A03478
:10016000B107D9F72AE3A0E4B1E001C01D92AE3295
:10017000B207E1F710E0CFE9D0E004C02197FE011B
:100180000E942D29CE39D107C9F70E942F1E0C9449
:10019000632B0C9400000895CF93DF931F92CDB78B
:1001A000DEB76983DC01ED91FC910280F381E02DE3
:1001B00041E050E0BE016F5F7F4F09950F90DF91E6
:1001C000CF910895089580E090E0089580EC90E04C
:1001D0000E94A21C83E090E00E94A21C6091030197
:1001E00089E699E30E94B51480EC90E00C94A21C7F
:1001F00080EC90E00E94A21C85E090E00E94A21C8E
:100200006091010189E699E30E94B51480EC90E0C9
:100210000C94A21C80EC90E00E94A21C84E090E070
:100220000E94A21C60913A0389E699E30E94B514EA
:1002300080EC90E00C94A21C80EC90E00E94A21C48
:1002400086E090E00E94A21C80914F0390E00E9403
:10025000A21C80EC90E00C94A21CCF93C82F80ECE1
:1002600090E00E94A21C80E990E00E94A21C6C2FEA
:1002700089E699E30E94B51480EC90E0CF910C944C
:10028000A21C803C31F48BED90E00E94A21C8CED0E
:1002900007C08B3D29F48BED90E00E94A21C8DEDF0
:1002A000682F89E699E30C94B51480EC90E00E94E5
:1002B000A21C81E090E00E94A21C809143030E9456
:1002C0004101809142030E944101809141030E94BB
:1002D0004101809140030E94410180EC90E00C9428
:1002E000A21C80EC90E00E94A21C82E090E00E94A0
:1002F000A21C80913F030E94410180913E030E9415
:10030000410180913D030E94410180913C030E9484
:10031000410180EC90E00C94A21C80EC90E00E94E3
:10032000A21C84E290E00E94A21C809159390E9494
:10033000410180EC90E00C94A21CCF93C091070186
:10034000C35680EC90E00E94A21C83E290E00E94E1
:10035000A21C8C2F0E94410180EC90E0CF910C9464
:10036000A21C0F931F93CF93DF938C01009711F082
:10037000EC0102C0C1E0D0E060E08EE01C161D067A
:10038000BCF40E94A71C64E670E080E090E00E944C
:10039000AB1D61E08EE00E94A71C64E670E080E087
:1003A00090E00E94AB1D0115110531F32197E4CFB8
:1003B000DF91CF911F910F910C94A71C0F931F9366
:1003C000CF93DF938C01009711F0EC0102C0C1E0E4
:1003D000D0E061E08FE00E94A71C60E08FE01C1677
:1003E0001D06BCF40E94A71C64E670E080E090E06B
:1003F0000E94AB1D61E08FE00E94A71C64E670E0E4
:1004000080E090E00E94AB1D0115110531F32197AA
:10041000E4CFDF91CF911F910F910C94A71C0F9304
:100420001F93CF93DF938C01009711F0EC0102C072
:10043000C1E0D0E01C161D060CF561E08EE00E94C4
:10044000A71C60E08FE00E94A71C64E670E080E0DB
:1004500090E00E94AB1D60E08EE00E94A71C61E06E
:100460008FE00E94A71C64E670E080E090E00E94AC
:10047000AB1D01151105F1F22197DCCF60E08EE094
:100480000E94A71C60E08FE0DF91CF911F910F9138
:100490000C94A71C2F923F924F925F926F927F9283
:1004A0008F929F92AF92BF92CF92DF92EF92FF9284
:1004B0000F931F93CF93DF93CDB7DEB7C457D10906
:1004C0000FB6F894DEBF0FBECDBFE5969FAF8EAFDF
:1004D000E597E3967FAF6EAFE3971A01DC011896BC
:1004E0004D905D906D907C901B9761964CAE5DAE8B
:1004F0006EAE7FAE61971C964D905D906D907C9036
:100500001F9749825A826B827C8250964D905D90F3
:100510006D907C9053974D825E826F827886549660
:100520004D905D906D907C90579749865A866B866A
:100530007C86A85ABF4F6396BFAFAEAF6397FC01EE
:10054000E45AFF4F6596FFAFEEAF6597805A9F4F15
:1005500067969FAF8EAF6797E596AEADBFADE59757
:10056000AC59BF4F6996BFAFAEAF6997E596EEAD98
:10057000FFADE597E859FF4F6B96FFAFEEAF6B9776
:10058000E5968EAD9FADE59784599F4F6D969FAFD1
:100590008EAF6D97E596AEADBFADE597A059BF4F55
:1005A0006F96BFAFAEAF6F97E596EEADFFADE59737
:1005B000EC58FF4FA196FFAFEEAFA197E5968EAD39
:1005C0009FADE59788589F4FA3969FAF8EAFA39797
:1005D000E596AEADBFADE597A458BF4FA596BFAFAA
:1005E000AEAFA597E596EEADFFADE597E058FF4FAE
:1005F000A796FFAFEEAFA797E5968EAD9FADE597B7
:100600008C579F4FA9969FAF8EAFA997E596AEAD39
:10061000BFADE597A857BF4FAB96BFAFAEAFAB9797
:10062000E596EEADFFADE597E457FF4FAD96FFAF12
:10063000EEAFAD97E5968EAD9FADE59780579F4F96
:10064000AF969FAF8EAFAF97E596AEADBFADE597D6
:10065000AC56BF4FE196BFAFAEAFE197E396AEADFC
:10066000BFADE3974D905D906D907C904D865E861A
:100670006F86788A6396EEADFFAD639740825182B4
:10068000628273820D811E812F81388549845A844C
:100690006B847C84042515252625372569807A807E
:1006A0008B809C80062117212821392189849A84F6
:1006B000AB84BC84082519252A253B2561968CAD81
:1006C0009DADAEADBFAD619788589B45A549B84279
:1006D0004D855E856F857889840F951FA61FB71F8E
:1006E000080F191F2A1F3B1FD901C80147E0880FB7
:1006F000991FAA1FBB1F4A95D1F759E13695279537
:10070000179507955A95D1F7082B192B2A2B3B2BB8
:1007100069817A818B819C81060F171F281F391FE1
:10072000E396AEADBFADE39714968D919D910D907C
:10073000BC91A02D898B9A8BAB8BBC8B6596EEAD53
:10074000FFAD659780839183A283B383C980DA80EC
:10075000EB80FC804D805E806F807884C424D5243B
:10076000E624F724C022D122E222F322C424D52495
:10077000E624F724D501C4018A5A9844A843B74116
:1007800069887A888B889C88860D971DA81DB91D5D
:10079000C80ED91EEA1EFB1ED701C6016CE0880FE9
:1007A000991FAA1FBB1F6A95D1F774E1F694E794CD
:1007B000D794C7947A95D1F7C82AD92AEA2AFB2A6E
:1007C000C00ED11EE21EF31EE396AEADBFADE397A1
:1007D00018968D909D90AD90BC901B978D8A9E8AA7
:1007E000AF8AB88E6796EEADFFAD67978082918233
:1007F000A282B38249815A816B817C814027512733
:10080000622773274C215D216E217F2149805A8008
:100810006B807C8044255525662577258D819E81BA
:10082000AF81B88585529F48AF4DBB4D880D991D4E
:10083000AA1DBB1D480F591F6A1F7B1FDB01CA0180
:10084000EFE0B695A79597958795EA95D1F7F1E1F1
:10085000440F551F661F771FFA95D1F7482B592B68
:100860006A2B7B2B4C0D5D1D6E1D7F1DE396AEAD7F
:10087000BFADE3971C966D907D908D909C901F97D7
:10088000698E7A8E8B8E9C8E6996EEADFFAD6997E0
:100890006082718282829382480159018C249D2456
:1008A000AE24BF2484229522A622B7228026912638
:1008B000A226B32689819A81AB81BC818251914362
:1008C000A244BE43498C5A8C6B8C7C8C840D951D44
:1008D000A61DB71D880E991EAA1EBB1ED501C401F8
:1008E000EAE0B695A79597958795EA95D1F7F6E151
:1008F000880C991CAA1CBB1CFA95D1F7882A992A46
:10090000AA2ABB2A840E951EA61EB71EE396AEAD7C
:10091000BFADE39750968D919D910D90BC91A02D08
:100920008D8F9E8FAF8FB8A36B96EEADFFAD6B979B
:1009300080839183A283B3838155904FA348BA40AB
:10094000080F191F2A1F3B1FD701C60184279527AF
:10095000A627B72788219921AA21BB218C259D256F
:10096000AE25BF25080F191F2A1F3B1FD901C8013B
:10097000E7E0880F991FAA1FBB1FEA95D1F7F9E19D
:100980003695279517950795FA95D1F7082B192BCA
:100990002A2B3B2B080D191D2A1D3B1DE396AEADDE
:1009A000BFADE39754964D905D906D907C905797B6
:1009B00049A25AA26BA27CA26D96EEADFFAD6D97D7
:1009C0004082518262827382D301C201865D994363
:1009D000A847B84BC80ED91EEA1EFB1EDB01CA0190
:1009E00088259925AA25BB2580239123A223B323FB
:1009F00084279527A627B727C80ED91EEA1EFB1EF7
:100A0000D701C601ECE0880F991FAA1FBB1FEA950A
:100A1000D1F7F4E1F694E794D794C794FA95D1F717
:100A2000C82AD92AEA2AFB2AC00ED11EE21EF31ECA
:100A3000E396AEADBFADE39758964D905D906D9047
:100A40007C905B974DA25EA26FA278A66F96EEADEA
:100A5000FFAD6F974082518262827382D301C201DF
:100A60008D5E994BAF4CB745480F591F6A1F7B1FCE
:100A7000D501C40180279127A227B3278C219D216E
:100A8000AE21BF2188259925AA25BB25480F591FCE
:100A90006A1F7B1FDB01CA01EFE0B695A79597950A
:100AA0008795EA95D1F7F1E1440F551F661F771F2F
:100AB000FA95D1F7482B592B6A2B7B2B4C0D5D1DDA
:100AC0006E1D7F1DE396AEADBFADE3975C964D9076
:100AD0005D906D907C905F9749A65AA66BA67CA608
:100AE000A196EEADFFADA1974082518262827382E2
:100AF000D301C2018F5F9A46A94BB240880E991E5E
:100B0000AA1EBB1ED901C8018C259D25AE25BF2577
:100B100084239523A623B72380279127A227B327D1
:100B2000880E991EAA1EBB1ED501C401EAE0B69527
:100B3000A79597958795EA95D1F7F6E1880C991CCA
:100B4000AA1CBB1CFA95D1F7882A992AAA2ABB2A83
:100B5000840E951EA61EB71EE396AEADBFADE397FD
:100B600090964D905D906D907C9093974DA65EA66B
:100B70006FA678AAA396EEADFFADA39740825182EF
:100B800062827382D301C20188529746AF47B64949
:100B9000080F191F2A1F3B1FD701C601842795275D
:100BA000A627B72788219921AA21BB218C259D251D
:100BB000AE25BF25080F191F2A1F3B1FD901C801E9
:100BC000E7E0880F991FAA1FBB1FEA95D1F7F9E14B
:100BD0003695279517950795FA95D1F7082B192B78
:100BE0002A2B3B2B080D191D2A1D3B1DE396AEAD8C
:100BF000BFADE39794964D905D906D907C909797E4
:100C000049AA5AAA6BAA7CAAA596EEADFFADA597F4
:100C10004082518262827382D301C2018155984021
:100C2000AB4BB447C80ED91EEA1EFB1EDB01CA013E
:100C300088259925AA25BB2580239123A223B323A8
:100C400084279527A627B727C80ED91EEA1EFB1EA4
:100C5000D701C601ECE0880F991FAA1FBB1FEA95B8
:100C6000D1F7F4E1F694E794D794C794FA95D1F7C5
:100C7000C82AD92AEA2AFB2AC00ED11EE21EF31E78
:100C8000E396AEADBFADE39798964D905D906D90B5
:100C90007C909B974DAA5EAA6FAA78AEA796EEAD00
:100CA000FFADA7974082518262827382D301C20155
:100CB0008F54944AA109B109480F591F6A1F7B1F1D
:100CC000D501C40180279127A227B3278C219D211C
:100CD000AE21BF2188259925AA25BB25480F591F7C
:100CE0006A1F7B1FDB01CA01EFE0B695A7959795B8
:100CF0008795EA95D1F7F1E1440F551F661F771FDD
:100D0000FA95D1F7482B592B6A2B7B2B4C0D5D1D87
:100D10006E1D7F1DE396AEADBFADE3979C964D90E3
:100D20005D906D907C909F9749AE5AAE6BAE7CAE55
:100D3000A996EEADFFADA99740825182628273827F
:100D4000D301C20182549842A34AB647880E991E25
:100D5000AA1EBB1ED901C8018C259D25AE25BF2525
:100D600084239523A623B72380279127A227B3277F
:100D7000880E991EAA1EBB1ED501C401EAE0B695D5
:100D8000A79597958795EA95D1F7F6E1880C991C78
:100D9000AA1CBB1CFA95D1F7882A992AAA2ABB2A31
:100DA000840E951EA61EB71EE396AEADBFADE397AB
:100DB000D0964D905D906D907C90D39721964CAEDF
:100DC0005DAE6EAE7FAE2197AB96EEADFFADAB974D
:100DD0004082518262827382FEED4F1AFEEE5F0AFC
:100DE000FFE66F0AF4E97F0A040D151D261D371D65
:100DF00026013701442655266626772648205920A5
:100E00006A207B204C245D246E247F24040D151D54
:100E1000261D371D2801390187E0440C551C661C2E
:100E2000771C8A95D1F799E13695279517950795FF
:100E30009A95D1F70429152926293729080D191D56
:100E40002A1D3B1DD4964D905D906D907C90D79758
:100E500025964CAE5DAE6EAE7FAE2597AD96EEADEF
:100E6000FFADAD974082518262827382FDE64F1AD8
:100E7000FEE85F0AF7E66F0AF2E07F0AC40CD51CB1
:100E8000E61CF71C2A013B01482459246A247B24D0
:100E90004022512262227322442655266626772656
:100EA000C40CD51CE61CF71C26013701ECE0440CF1
:100EB000551C661C771CEA95D1F7F4E1F694E7948B
:100EC000D794C794FA95D1F7C428D528E628F728EF
:100ED000C00ED11EE21EF31ED8964D905D906D900F
:100EE0007C90DB9729964CAE5DAE6EAE7FAE2997B7
:100EF000AF96EEADFFADAF974082518262827382B2
:100F0000F2E74F1AFCEB5F0AF6E86F0AF9E57F0A91
:100F1000440D551D661D771D2401350140265126BF
:100F2000622673264C205D206E207F2048245924A1
:100F30006A247B24440D551D661D771D2A013B0143
:100F40008FE076946794579447948A95D1F791E10E
:100F5000440F551F661F771F9A95D1F744295529CD
:100F6000662977294C0D5D1D6E1D7F1DDC964D9009
:100F70005D906D907C90DF972D964CAE5DAE6EAE21
:100F80007FAE2D97E196EEADFFADE19740825182A5
:100F900062827382FFED4F1AF7EF5F0AFBE46F0A7C
:100FA000F6EB7F0A840C951CA61CB71C280139019E
:100FB0004C245D246E247F2444225522662277220D
:100FC0004026512662267326840C951CA61CB71C4D
:100FD00024013501EAE07694679457944794EA95A2
:100FE000D1F7F6E1880C991CAA1CBB1CFA95D1F725
:100FF00084289528A628B728840E951EA61EB71EFD
:1010000049885A886B887C888EE9481A8AED580A84
:1010100081EE680A89E0780A040D151D261D371D2A
:101020002A013B01482459246A247B244C205D205A
:101030006E207F204426552666267726040D151D32
:10104000261D371D28013901A5E0440C551C661CDE
:10105000771CAA95D1F7BBE136952795179507958B
:10106000BA95D1F70429152926293729080D191D04
:101070002A1D3B1D4DA05EA06FA078A490EC491ADC
:101080009CE4590A9FEB690A9FE3790AC40CD51CBA
:10109000E61CF71C240135014026512662267326E2
:1010A0004422552266227722482459246A247B242C
:1010B000C40CD51CE61CF71C2601370189E0440C42
:1010C000551C661C771C8A95D1F797E1F694E79436
:1010D000D794C7949A95D1F7C428D528E628F7283D
:1010E000C00ED11EE21EF31E49AC5AAC6BAC7CACF8
:1010F000AFEA4A1AA5EA5A0AA1EA6A0AA9ED7A0AE7
:10110000440D551D661D771D280139014C245D24B1
:101110006E247F24482059206A207B2040265126B7
:1011200062267326440E551E661E771ED301C20129
:101130004EE0880F991FAA1FBB1F4A95D1F752E1B5
:1011400076946794579447945A95D1F7482A592A28
:101150006A2A7B2A4C0C5D1C6E1C7F1C4D855E85AB
:101160006F8578894655584369447641840E951EAB
:10117000A61EB71EB701A60144255525662577256D
:1011800040235123622373234C255D256E257F2543
:10119000480D591D6A1D7B1DDB01CA01ECE0B695A7
:1011A000A79597958795EA95D1F7F4E1440F551FD8
:1011B000661F771FFA95D1F7482B592B6A2B7B2B8B
:1011C000440D551D661D771D89A09AA0ABA0BCA03B
:1011D000B3EA8B1ABFEE9B0AB0EDAB0AB9E2BB0AC9
:1011E000080D191D2A1D3B1D530142018426952619
:1011F000A626B7268C209D20AE20BF2084249524CF
:10120000A624B724080D191D2A1D3B1D48015901AC
:10121000A5E0880C991CAA1CBB1CAA95D1F7BBE1C0
:101220003695279517950795BA95D1F70829192965
:101230002A293B29040F151F261F371F8DA89EA89A
:10124000AFA8B8ACEDEA8E1AEBEE9E0AEBEBAE0A55
:10125000EDEFBE0AC80CD91CEA1CFB1C4A015B015D
:1012600080269126A226B32684209520A620B7208A
:1012700084269526A626B726C80CD91CEA1CFB1C7A
:101280004601570189E0880C991CAA1CBB1C8A9551
:10129000D1F797E1F694E794D794C7949A95D1F74C
:1012A000C828D928EA28FB28C00ED11EE21EF31E4A
:1012B0002D968CAC9DACAEACBFAC2D97FFE78F1AD2
:1012C000F9E19F0AFEE5AF0AF7E2BF0A480C591C94
:1012D0006A1C7B1C480159018C249D24AE24BF2428
:1012E00084229522A622B72280269126A226B32602
:1012F000480C591C6A1C7B1C53014201EEE0880C0F
:10130000991CAA1CBB1CEA95D1F7F2E1769467946C
:1013100057944794FA95D1F7482859286A287B288A
:101320004C0C5D1C6E1C7F1C8D8C9E8CAF8CB8A0F1
:1013300088E3881A84E0980A8CE2A80A88E1B80A4F
:10134000480D591D6A1D7B1D4601570184249524B3
:10135000A624B72480229122A222B3228C249D2489
:10136000AE24BF24480D591D6A1D7B1D4A015B0137
:10137000ACE0B694A79497948794AA95D1F7B4E17A
:10138000440F551F661F771FBA95D1F74829592971
:101390006A297B29440D551D661D771D89A89AA8C9
:1013A000ABA8BCA89AE1891A92E3990A9EE1A90A1E
:1013B0009EEDB90A080D191D2A1D3B1D530142015E
:1013C00084269526A626B7268C209D20AE20BF20F9
:1013D00084249524A624B724080D191D2A1D3B1D1D
:1013E0004801590185E0880C991CAA1CBB1C8A95F0
:1013F000D1F79BE136952795179507959A95D1F7E3
:10140000082919292A293B29040F151F261F371FD0
:1014100029968CAC9DACAEACBFAC2997AAE28A1AD7
:10142000A8EF9A0AA8ECAA0AACE3BA0AC80CD91C1D
:10143000EA1CFB1C4A015B0180269126A226B326EA
:1014400084209520A620B72084269526A626B72698
:10145000C80CD91CEA1CFB1C46015701E9E0880CAA
:10146000991CAA1CBB1CEA95D1F7F7E1F694E79406
:10147000D794C794FA95D1F7C828D928EA28FB2829
:10148000C00ED11EE21EF31E898C9A8CAB8CBC8CD4
:10149000B9E78B1AB2EF9B0ABAE2AB0ABBE0BB0A10
:1014A000480C591C6A1C7B1C480159018C249D2442
:1014B000AE24BF2484229522A622B722802691261C
:1014C000A226B326480C591C6A1C7B1C53014201FE
:1014D000AEE0880C991CAA1CBB1CAA95D1F7B2E1FE
:1014E0007694679457944794BA95D1F74828592829
:1014F0006A287B284C0C5D1C6E1C7F1C8DA49EA44E
:10150000AFA4B8A8E3E18E1AEBEE9E0AE5EAAE0AB4
:10151000EAEBBE0A480D591D6A1D7B1D46015701A5
:1015200084249524A624B72480229122A222B322C7
:101530008C249D24AE24BF24480D591D6A1D7B1D9B
:101540004A015B018CE0B694A794979487948A959E
:10155000D1F794E1440F551F661F771F9A95D1F775
:10156000482959296A297B29440D551D661D771D77
:1015700025968CAC9DACAEACBFAC2597FBEF8F1A1B
:10158000F6E19F0AFCE1AF0AF6E5BF0A080D191D56
:101590002A1D3B1D5301420184269526A626B72607
:1015A0008C209D20AE20BF2084249524A624B7241F
:1015B000080D191D2A1D3B1D48015901E5E0880C45
:1015C000991CAA1CBB1CEA95D1F7FBE1369527951F
:1015D00017950795FA95D1F7082919292A293B2942
:1015E000040F151F261F371F8D889E88AF88B88C63
:1015F00088E0881A8CE5980A80E1A80A83E0B80A96
:10160000C80CD91CEA1CFB1C4A015B0180269126F0
:10161000A226B32684209520A620B72084269526CE
:10162000A626B726C80CD91CEA1CFB1C460157018C
:10163000A9E0880C991CAA1CBB1CAA95D1F7B7E19C
:10164000F694E794D794C794BA95D1F7C828D928C7
:10165000EA28FB28C00ED11EE21EF31E89A49AA41C
:10166000ABA4BCA497E2891A9DEF990A90E9A90A54
:1016700098E9B90A480C591C6A1C7B1C480159019D
:101680008C249D24AE24BF2484229522A622B72236
:1016900080269126A226B326480C591C6A1C7B1C66
:1016A000530142018EE0880C991CAA1CBB1C8A9530
:1016B000D1F792E176946794579447949A95D1F72D
:1016C000482859286A287B284C0C5D1C6E1C7F1CFE
:1016D0004601570184249524A624B72421968CAD75
:1016E0009DADAEADBFAD21978657934BA54DB2478B
:1016F000480F591F6A1F7B1FD901C80188219921F2
:10170000AA21BB218C259D25AE25BF25480F591F39
:101710006A1F7B1FDB01CA01ECE0B695A795979580
:101720008795EA95D1F7F4E1440F551F661F771F9F
:10173000FA95D1F7482B592B6A2B7B2B440D551D5D
:10174000661D771D89A19AA1ABA1BCA18E5B964CA9
:10175000A540B109080F191F2A1F3B1F8426952693
:10176000A626B726080D191D2A1D3B1D4801590143
:10177000A4E0880C991CAA1CBB1CAA95D1F7BCE15B
:101780003695279517950795BA95D1F70829192900
:101790002A293B29040F151F261F371F8DA49EA43D
:1017A000AFA4B8A8AFE78A1AA9E09A0AAEE8AA0AD5
:1017B000A8E7BA0AC80CD91CEA1CFB1C5301420159
:1017C00084269526A626B72680269126A226B3260D
:1017D000C80CD91CEA1CFB1C460157018BE0880C85
:1017E000991CAA1CBB1C8A95D1F795E1F694E79445
:1017F000D794C7949A95D1F7C828D928EA28FB2806
:10180000C00ED11EE21EF31E89AC9AACABACBCACD0
:10181000BEED8B1ABEE99B0AB2E6AB0AB2E9BB0A7F
:10182000480C591C6A1C7B1C4A015B0180269126CE
:10183000A226B3268C249D24AE24BF24480C591C18
:101840006A1C7B1CF20123013F014C0C5D1C6E1CC9
:101850007F1C29968CAC9DACAEACBFAC2997F4EF45
:101860008F1AF7EC9F0AFAE1AF0AF2E0BF0A480DBF
:10187000591D6A1D7B1D480159018C249D24AE24ED
:10188000BF2484249524A624B724480D591D6A1D1D
:101890007B1D4A015B01E9E0B694A7949794879475
:1018A000EA95D1F7F7E1440F551F661F771FFA95A8
:1018B000D1F7482959296A297B29440D551D661DF0
:1018C000771D89889A88AB88BC888CEB881A85E15B
:1018D000980A81E4A80A8BE5B80A080D191D2A1D8B
:1018E0003B1D4601570184249524A624B724842651
:1018F0009526A626B726080D191D2A1D3B1D480151
:101900005901A4E0880C991CAA1CBB1CAA95D1F70C
:10191000BCE13695279517950795BA95D1F7082913
:1019200019292A293B29040F151F261F371F8D8CC3
:101930009E8CAF8CB8A097E5891A90E3990A91E242
:10194000A90A94EBB90AC80CD91CEA1CFB1C530168
:10195000420184269526A626B72680269126A22611
:10196000B326C80CD91CEA1CFB1C460157018BE0AE
:10197000880C991CAA1CBB1C8A95D1F795E1F6949A
:10198000E794D794C7949A95D1F7C828D928EA281C
:10199000FB28C00ED11EE21EF31E89A49AA4ABA49C
:1019A000BCA4A0EA8A1AA4EB9A0AA4E4AA0AA9E0B1
:1019B000BA0A480C591C6A1C7B1C4A015B01802630
:1019C0009126A226B3268C249D24AE24BF24480C45
:1019D000591C6A1C7B1CF20123013F014C0C5D1C4D
:1019E0006E1C7F1C8DA89EA8AFA8B8ACF0E98F1A1A
:1019F000F3E49F0AF0E4AF0AF1E4BF0A480D591D71
:101A00006A1D7B1D480159018C249D24AE24BF24EE
:101A100084249524A624B724840E951EA61EB71EE2
:101A2000D501C40149E0B695A795979587954A9544
:101A3000D1F757E1880C991CAA1CBB1C5A95D1F709
:101A4000882A992AAA2ABB2A840C951CA61CB71C92
:101A500025964CAD5DAD6EAD7FAD25974A5351488F
:101A60006446774D040F151F261F371FB701A601C7
:101A70004425552566257725482559256A257B2542
:101A8000040F151F261F371FB901A801E4E0440FFA
:101A9000551F661F771FEA95D1F7FCE1369527950C
:101AA00017950795FA95D1F7042B152B262B372B75
:101AB000080D191D2A1D3B1D4D855E856F85788992
:101AC0004650584D6E457541C40ED51EE61EF71E94
:101AD000B301A201482559256A257B2540275127B6
:101AE000622773274C0D5D1D6E1D7F1DDB01CA0132
:101AF000EBE0880F991FAA1FBB1FEA95D1F7F5E10C
:101B00007695679557954795FA95D1F7482B592BB8
:101B10006A2B7B2B400F511F621F731FC98CDA8CFD
:101B2000EB8CFC8C8BE7C81A8FECD80A80E1E80AB2
:101B30008BE2F80A4C0C5D1C6E1C7F1C7501640165
:101B4000C026D126E226F326C426D526E626F72689
:101B50004C0C5D1C6E1C7F1CD20123013D01440E08
:101B6000551E661E771ECDA0DEA0EFA0F8A4BBEF29
:101B7000CB1AB2EEDB0AB7E7EB0ABBEFFB0A8C0C21
:101B80009D1CAE1CBF1C68017901C426D526E62623
:101B9000F726C424D524E624F7248C0C9D1CAE1C07
:101BA000BF1C75016401A9E0F694E794D794C7942B
:101BB000AA95D1F7B7E1880C991CAA1CBB1CBA9551
:101BC000D1F78C289D28AE28BF28840C951CA61C14
:101BD000B71CC9A8DAA8EBA8FCA8E7ECCE1AEFE27C
:101BE000DE0AEBE2EE0AE6E2FE0A0C0D1D1D2E1DDA
:101BF0003F1D6A017B01C424D524E624F724C824B0
:101C0000D924EA24FB240C0D1D1D2E1D3F1D680147
:101C1000790184E0CC0CDD1CEE1CFF1C8A95D1F709
:101C20009CE136952795179507959A95D1F70C293C
:101C30001D292E293F29080D191D2A1D3B1D2196FE
:101C4000CCACDDACEEACFFAC2197FBE1CF1AF6E6F5
:101C5000DF0AF4E2EF0AF9E1FF0A4C0D5D1D6E1D8B
:101C60007F1D73016201C824D924EA24FB24C02605
:101C7000D126E226F3264C0D5D1D6E1D7F1D6A01E7
:101C80007B01EBE0CC0CDD1CEE1CFF1CEA95D1F7D0
:101C9000F5E17695679557954795FA95D1F74C29D3
:101CA0005D296E297F29400F511F621F731F2D96DA
:101CB000CCACDDACEEACFFAC2D9788E0C81A83E865
:101CC000D80A8DE5E80A80EEF80A4C0C5D1C6E1C03
:101CD0007F1C75016401C026D126E226F326C426A6
:101CE000D526E626F7264C0C5D1C6E1C7F1CD20107
:101CF00023013D01440E551E661E771ECD88DE88E9
:101D0000EF88F88CBBE9CB1AB9EADB0AB3E5EB0A3A
:101D1000BBE3FB0A8C0C9D1CAE1CBF1C6801790147
:101D2000C426D526E626F726C424D524E624F7249F
:101D30008C0C9D1CAE1CBF1C75016401A9E0F694BF
:101D4000E794D794C794AA95D1F7B7E1880C991C6A
:101D5000AA1CBB1CBA95D1F78C289D28AE28BF2899
:101D6000840C951CA61CB71CCD84DE84EF84F888F7
:101D7000ECEBCE1AEDEDDE0AE6EDEE0AEBE0FE0A44
:101D80000C0D1D1D2E1D3F1D6A017B01C094D094BA
:101D9000E094F094C828D928EA28FB28C424D52444
:101DA000E624F7240C0D1D1D2E1D3F1D6801790131
:101DB00086E0CC0CDD1CEE1CFF1C8A95D1F79AE165
:101DC00036952795179507959A95D1F70C291D29D2
:101DD0002E293F29080D191D2A1D3B1DC9A4DAA46F
:101DE000EBA4FCA4F9E6CF1AD108F5EDEF0AFCEB61
:101DF000FF0A4C0D5D1D6E1D7F1D73016201C094B5
:101E0000D094E094F094C02AD12AE22AF32AC8247C
:101E1000D924EA24FB244C0D5D1D6E1D7F1D6A0133
:101E20007B01EAE0CC0CDD1CEE1CFF1CEA95D1F72F
:101E3000F6E17695679557954795FA95D1F74C2930
:101E40005D296E297F29400F511F621F731F29963C
:101E5000CCACDDACEEACFFAC299789E5C81A8CEDB3
:101E6000D80A8BE6E80A84E5F80A4C0C5D1C6E1C67
:101E70007F1C75016401C094D094E094F094C42A4E
:101E8000D52AE62AF72AC026D126E226F3264C0CCC
:101E90005D1C6E1C7F1C73016201AFE0CC0CDD1C6D
:101EA000EE1CFF1CAA95D1F7B1E176946794579484
:101EB0004794BA95D1F74C285D286E287F28440EA8
:101EC000551E661E771EC9A0DAA0EBA0FCA097ECF9
:101ED000C91A9FE5D90A9CE6E90A93E0F90A8C0C35
:101EE0009D1CAE1CBF1C68017901C094D094E09485
:101EF000F094C428D528E628F728C426D526E62657
:101F0000F7268C0C9D1CAE1CBF1C750164018BE078
:101F1000F694E794D794C7948A95D1F795E1880C05
:101F2000991CAA1CBB1C9A95D1F78C289D28AE2819
:101F3000BF28840C951CA61CB71C2196CCACDDAC2C
:101F4000EEACFFAC2197ADE3CA1AA6EADA0AA4EA1E
:101F5000EA0AAAE9FA0A0C0D1D1D2E1D3F1D6A0191
:101F60007B01C094D094E094F094C828D928EA2842
:101F7000FB28C424D524E624F7240C0D1D1D2E1D9A
:101F80003F1D68017901E6E0CC0CDD1CEE1CFF1C56
:101F9000EA95D1F7FAE13695279517950795FA95C1
:101FA000D1F70C291D292E293F29080D191D2A1D9D
:101FB0003B1DC98CDA8CEB8CFC8CBEE6CB1AB3E3F0
:101FC000DB0AB3EFEB0AB0E7FB0A4C0D5D1D6E1D9B
:101FD0007F1D73016201C094D094E094F094C02AF4
:101FE000D12AE22AF32AC824D924EA24FB244C0D5E
:101FF0005D1D6E1D7F1D6A017B01AAE0CC0CDD1CFE
:10200000EE1CFF1CAA95D1F7B6E17695679557951A
:102010004795BA95D1F74C295D296E297F29400F44
:10202000511F621F731FCDA8DEA8EFA8F8ACE3E82C
:10203000CE1AEBE0DE0AE0E1EE0AF1084C0C5D1C82
:102040006E1C7F1C75016401C094D094E094F094E0
:10205000C42AD52AE62AF72AC026D126E226F32664
:102060004C0C5D1C6E1C7F1C730162018FE0CC0C5C
:10207000DD1CEE1CFF1C8A95D1F791E176946794E4
:10208000579447949A95D1F74C285D286E287F285D
:10209000440E551E661E771EC988DA88EB88FC88B8
:1020A000FFE2CF1AF2EADF0AFBE7EF0AFAE7FF0ADC
:1020B0008C0C9D1CAE1CBF1C68017901C094D0948F
:1020C000E094F094C428D528E628F728C426D5261D
:1020D000E626F7268C0C9D1CAE1CBF1C7501640106
:1020E000EBE0F694E794D794C794EA95D1F7F5E13D
:1020F000880C991CAA1CBB1CFA95D1F78C289D282A
:10210000AE28BF28840C951CA61CB71CCDA4DEA449
:10211000EFA4F8A881EBC81A81E8D80A87E5E80A95
:1021200080E9F80A0C0D1D1D2E1D3F1D6A017B0163
:10213000C094D094E094F094C828D928EA28FB28C9
:10214000C424D524E624F7240C0D1D1D2E1D3F1D8F
:1021500068017901A6E0CC0CDD1CEE1CFF1CAA95E1
:10216000D1F7BAE13695279517950795BA95D1F726
:102170000C291D292E293F29080D191D2A1D3B1D3B
:102180002D968CAD9DADAEADBFAD2D9780529941D2
:10219000A34DB140480F591F6A1F7B1FD301C201D5
:1021A00080959095A095B095802B912BA22BB32B69
:1021B00088259925AA25BB25480F591F6A1F7B1F13
:1021C000DB01CA01EAE0880F991FAA1FBB1FEA952D
:1021D000D1F7F6E17695679557954795FA95D1F73A
:1021E000482B592B6A2B7B2B400F511F621F731FEB
:1021F0008DA19EA1AFA1B8A58C5E9C4BAE4FBC45F6
:10220000480E591E6A1E7B1ED501C401809590950B
:10221000A095B095842B952BA62BB72B80279127C3
:10222000A227B327480E591E6A1E7B1ED301C20186
:10223000EFE0880F991FAA1FBB1FEA95D1F7F1E1C4
:102240007694679457944794FA95D1F7482A592A77
:102250006A2A7B2A440E551E661E771E25968CAD73
:102260009DADAEADBFAD25978F559E4EA74FB14BDF
:10227000880E991EAA1EBB1ED901C8018095909593
:10228000A095B09584299529A629B7298427952753
:10229000A627B727880E991EAA1EBB1ED501C4010A
:1022A000EBE0B695A79597958795EA95D1F7F5E177
:1022B000880C991CAA1CBB1CFA95D1F7882A992A6C
:1022C000AA2ABB2A840C951CA61CB71C8D8D9E8D3A
:1022D000AF8DB8A18E579148AC4AB840080F191F6E
:1022E0002A1F3B1FDB01CA0180959095A095B095F0
:1022F00088299929AA29BB2984259525A625B725AA
:10230000080F191F2A1F3B1FD901C801E6E0880FDB
:10231000991FAA1FBB1FEA95D1F7FAE136952795B9
:1023200017950795FA95D1F7082B192B2A2B3B2BDC
:10233000080D191D2A1D3B1D89AD9AADABADBCAD75
:102340008B5C9D40A54CB244480F591F6A1F7B1FF0
:10235000D301C20180959095A095B095802B912BCB
:10236000A22BB32B88259925AA25BB25480F591FD9
:102370006A1F7B1FDB01CA01EAE0880F991FAA1FB1
:10238000BB1FEA95D1F7F6E1769567955795479586
:10239000FA95D1F7482B592B6A2B7B2B400F511FF5
:1023A000621F731F8D899E89AF89B88D85549D42A8
:1023B000A842B54D480E591E6A1E7B1ED501C401A8
:1023C00080959095A095B095842B952BA62BB72B37
:1023D00080279127A227B327480E591E6A1E7B1E0D
:1023E000D301C201EFE0880F991FAA1FBB1FEA9516
:1023F000D1F7F1E17694679457944794FA95D1F721
:10240000482A592A6A2A7B2A440E551E661E771EC0
:1024100089A99AA9ABA9BCA98F569C42A947B441E6
:10242000880E991EAA1EBB1ED901C80180959095E1
:10243000A095B09584299529A629B72984279527A1
:10244000A627B727880E991EAA1EBB1ED501C40158
:10245000EBE0B695A79597958795EA95D1F7F5E1C5
:10246000880C991CAA1CBB1CFA95D1F7882A992ABA
:10247000AA2ABB2A61968CAD9DADAEADBFAD61976A
:10248000800F911FA21FB31F61968CAF9DAFAEAF9F
:10249000BFAF6197840C951CA61CB71C89819A81DB
:1024A000AB81BC81880D991DAA1DBB1D89839A83B0
:1024B000AB83BC838D809E80AF80B884840C951CD8
:1024C000A61CB71C8D829E82AF82B88689859A85AC
:1024D000AB85BC85840F951FA61FB71F89879A8778
:1024E000AB87BC87E396AEADBFADE397A05CBF4FB3
:1024F000E396BFAFAEAFE397B0E42B1A310811F00B
:102500000C942E0361964CAC5DAC6EAC7FAC6197C5
:10251000E596AEADBFADE59718964D925D926D9282
:102520007C921B9749805A806B807C801C964D92D0
:102530005D926D927C921F97FD01808A918AA28A9A
:10254000B38A49845A846B847C8454964D925D92FC
:102550006D927C925797E3968EAD9FADE397CC58E2
:10256000DF4F0FB6F894DEBF0FBECDBFDF91CF9126
:102570001F910F91FF90EF90DF90CF90BF90AF90A1
:102580009F908F907F906F905F904F903F902F9093
:1025900008950F931F93CF93DF93EC01062F142F11
:1025A00060E08E850E94A71C4C853D8580915D3939
:1025B000882399F02FB7F89480915D39813059F4D0
:1025C0008DB3809358399DB380915C398095892370
:1025D0008DBB2FBF02C0209358394CBD3DBD0EBDF1
:1025E00000000DB407FEFDCF8EB51EBD00000DB47A
:1025F00007FEFDCF1EB580915D39882361F09FB73E
:10260000F89420915D3980915839213019F48DBBAF
:102610009FBF01C08FBF61E08E850E94A71C812FE4
:10262000DF91CF911F910F91089580914F038823DF
:10263000D1F080914001843EB1F44091030150916A
:1026400004014230510534F0483151052CF047E186
:1026500050E002C042E050E04350406869E887E043
:102660009AE30C94C91208956F7740E00C94C91254
:10267000CF9362E187E09AE30E943413C82F482F7A
:1026800062E987E09AE30E94C912C5FD2DC010924D
:10269000203A10921F3A8091213A9091223A892B48
:1026A00011F062E201C063E187E09AE30E94341313
:1026B000C82F60E187E09AE30E943413482F6DE849
:1026C00087E09AE30E94C912E091233AF091243AFC
:1026D000309719F08C2F90E0099540E06DE887E085
:1026E0009AE3CF910C94C912CF9108950F931F9341
:1026F000CF93DF93EC01E881F9810084F185E02D2F
:102700000995892B91F06DE0CE010E943413082FBA
:1027100060E0CE010E943413182F402F6DE8CE01E7
:102720000E94C912812F90E002C08FEF9FEFDF91CE
:10273000CF911F910F910895CF93DF93EC01E88122
:10274000F9810084F185E02D0995892B59F0888D58
:10275000998D0196998F888F60E0CE010E94341385
:1027600090E002C08FEF9FEFDF91CF9108950F931C
:102770001F93CF93DF938C0101151105A1F0C09138
:102780005A39D0915B39CE01019690935B39809391
:102790005A3987E09AE30E949C13CF5BDE4F88830F
:1027A00001501109E9CFDF91CF911F910F91089549
:1027B000CF93DF93EC0163E10E94341390E0288D06
:1027C000398D821B930BDF91CF910895AF92BF9209
:1027D000CF92DF92FF920F931F93CF93DF936C0101
:1027E0005B01EA0162E20E943413F82E90E09C0142
:1027F0002C0F3D1F2F3F310529F020F0CFEFD0E007
:10280000C81BD90B8501AC0EBD1E0A151B0541F076
:10281000F80141918F0160E8C6010E94C912F5CF0D
:102820004C2F4F0D62EAC6010E94C912CE01DF9102
:10283000CF911F910F91FF90DF90CF90BF90AF90FD
:1028400008950895CF92DF92EF92FF920F931F9316
:10285000CF93DF936C017A018B01C0E0D0E0CE15FD
:10286000DF0581F0D8016D918D01D601ED91FC91CC
:102870000190F081E02DC6010995892B11F0219678
:10288000EECF7E01C701DF91CF911F910F91FF9095
:10289000EF90DF90CF900895FC01538D448D252F4C
:1028A00030E0842F90E0821B930B541710F0CF96EA
:1028B000089501970895FC01918D828D981761F01C
:1028C000828DDF01A80FB11D5D968C91928D9F5F67
:1028D0009F73928F90E008958FEF9FEF0895FC0112
:1028E000918D828D981731F0828DE80FF11D858DC5
:1028F00090E008958FEF9FEF0895FC01918D228D58
:10290000892F90E0805C9F4F821B91098F739927DC
:10291000089589E699E30E947D1421E0892B09F44A
:1029200020E0822F0895FC01848DDF01A80FB11DE6
:10293000A35ABF4F2C91848D90E001968F739927F5
:10294000848FA689B7892C93A089B1898C918370D3
:1029500080648C93938D848D981306C00288F389CC
:10296000E02D80818F7D80830895EF92FF920F93F9
:102970001F93CF93DF93EC0181E0888F9B8D8C8D2B
:10298000981305C0E889F989808185FD26C0F62E57
:102990000B8D10E00F5F1F4F0F731127E02E8C8DF2
:1029A000E8120CC00FB607FCFACFE889F9898081DC
:1029B00085FFF5CFCE010E949314F1CF8B8DFE01E0
:1029C000E80FF11DE35AFF4FF0829FB7F8940B8F89
:1029D000EA89FB89808180620AC09FB7F894EE89FA
:1029E000FF896083E889F9898081837080648083AE
:1029F0009FBF81E090E0DF91CF911F910F91FF90F9
:102A0000EF900895CF93DF93EC01888D8823C9F070
:102A1000EA89FB89808185FD05C0A889B9898C91E7
:102A200086FD0FC00FB607FCF5CF808185FFF2CF82
:102A3000A889B9898C9185FFEDCFCE010E949314AE
:102A4000E7CFDF91CF91089580E090E0892B21F0CE
:102A50000E94891481110DC080E090E0892B71F0F3
:102A600080E090E0892B51F00E940000811104C0A9
:102A700008950E940000F0CF0C94000008950E9479
:102A80005E2B0F931F93CF93DF93EC01809139035B
:102A9000811130C087E09AE30E949C1321974091F6
:102AA000090180FF0DC09C01332754E0359527951F
:102AB0005A95E1F74F3F09F492C0241390C06AC0C1
:102AC0004F3F39F010925B3910925A398FEF809353
:102AD00009010E94EE1A909308018093070169E1B1
:102AE00087E09AE30E94341380935939CE010E9403
:102AF000B7138FC010925B3910925A390E94EE1AA8
:102B0000909308018093070169E187E09AE30E94AE
:102B1000341380935939CE010E94B7130E949D014E
:102B20000E948D0180EC90E00E94A21C80E090E069
:102B30000E94A21CC0E08C2F90E020915A39309165
:102B40005B398217930768F080EC90E00E94A21C2A
:102B500010925B3910925A39DF91CF911F910F91EA
:102B60000895FC01EF5BFE4F6081603C31F48BED1A
:102B700090E00E94A21C6CED07C06B3D29F48BED28
:102B800090E00E94A21C6DED89E699E30E94B514C5
:102B9000CF5FD1CF0E94EE1A20910701309108013A
:102BA000820F931F97FD0196959587959093080145
:102BB000809307010091593910E069E187E09AE3B9
:102BC0000E943413080F111D15950795009359396C
:102BD000CE010E94B7138FEF809309011AC01092A3
:102BE0005B3910925A39209309010E94EE1A909392
:102BF00008018093070169E187E09AE30E9434139A
:102C000080935939CE01DF91CF911F910F910C9490
:102C1000B7130E949D010E948D0180EC90E00E94FC
:102C2000A21C80E090E00E94A21CC0E08C2F90E0EB
:102C300020915A3930915B398217930708F084CF7D
:102C4000FC01EF5BFE4F6081603C31F48BED90E066
:102C50000E94A21C6CED07C06B3D29F48BED90E047
:102C60000E94A21C6DED89E699E30E94B514CF5F26
:102C7000DDCF1F920F920FB60F9211240BB60F9259
:102C80002F933F934F935F936F937F938F939F9374
:102C9000AF93BF93EF93FF93E0910E01F0910F017B
:102CA0000995FF91EF91BF91AF919F918F917F9186
:102CB0006F915F914F913F912F910F900BBE0F90AD
:102CC0000FBE0F901F9018951F920F920FB60F9284
:102CD00011240BB60F922F933F934F935F936F93F3
:102CE0007F938F939F93AF93BF93EF93FF93E09165
:102CF0000C01F0910D010995FF91EF91BF91AF91FA
:102D00009F918F917F916F915F914F913F912F9103
:102D10000F900BBE0F900FBE0F901F9018951F9233
:102D20000F920FB60F9211240BB60F922F933F9371
:102D30004F935F936F937F938F939F93AF93BF93C3
:102D4000EF93FF93E0910A01F0910B010995FF9138
:102D5000EF91BF91AF919F918F917F916F915F9113
:102D60004F913F912F910F900BBE0F900FBE0F9080
:102D70001F9018951F920F920FB60F9211240BB649
:102D80000F922F933F934F935F936F937F938F9304
:102D90009F93AF93BF93EF93FF9389E699E30E94CC
:102DA0009314FF91EF91BF91AF919F918F917F917C
:102DB0006F915F914F913F912F910F900BBE0F90AC
:102DC0000FBE0F901F9018951F920F920FB60F9283
:102DD00011240BB60F922F938F939F93EF93FF9332
:102DE000E0917939F0917A398081E0917F39F091E1
:102DF000803982FD12C09081809182398F5F8F73FC
:102E000020918339821751F0E0918239F0E0E7593F
:102E1000F64C958F8093823901C08081FF91EF91AC
:102E20009F918F912F910F900BBE0F900FBE0F901F
:102E30001F9018950F931F93CF93DF9366E087E061
:102E40009AE30E943413D82F67E087E09AE30E9448
:102E50003413C82F68E087E09AE30E9434134C2FA4
:102E600050E060E070E0762F652F542F44276D2BE3
:102E70008A019B01082BC901B80120E038E448EE23
:102E800051E00E943D2903E10E94E2292093400382
:102E9000309341034093420350934303DF91CF911A
:102EA0001F910F910895CF92DF92EF92FF92CF93EF
:102EB000DF9360913C0370913D0380913E039091BC
:102EC0003F030E9483276B017C0120E030EC43EF3D
:102ED00055E40E947C2718160CF056C020E030E81C
:102EE00042E256E4C701B6010E947C2718160CF096
:102EF0004EC020E030EC43E756E4C701B6010E9423
:102F00007C2718160CF046C020E030E842EA56E470
:102F1000C701B6010E947C2718160CF03EC020E0C5
:102F200034E244EF56E4C701B6010E947C2718162C
:102F3000BCF520E034EE42E257E4C701B6010E943E
:102F40007C27181684F520E034E244E757E4C701F3
:102F5000B6010E947C2718164CF520E034E244EFBD
:102F600057E4C701B6010E947C27181614F520E02B
:102F700034E244E758E4C701B6010E947C271816E2
:102F8000DCF4C9E0D0E01AC0C0E0D0E017C0C1E076
:102F9000D0E014C0C2E0D0E011C0C3E0D0E00EC069
:102FA000C4E0D0E00BC0C5E0D0E008C0C6E0D0E08F
:102FB00005C0C7E0D0E002C0C8E0D0E06DE187E026
:102FC0009AE30E9434138F7094E0CC0FDD1F9A9522
:102FD000E1F74C2F482B6DE987E09AE30E94C91274
:102FE0000E94E81B80914F03882351F00E944A1BE6
:102FF00060933C0370933D0380933E0390933F03A3
:10300000DF91CF91FF90EF90DF90CF9008950C94D7
:10301000A0281F920F920FB60F9211240BB60F9299
:103020002F933F934F935F936F937F938F939F93D0
:10303000AF93BF93CF93EF93FF9380916439811146
:1030400062C081E080936439C4E189E699E30E941B
:103050007D14892B09F455C09FB7F894409148031B
:10306000509149032091440330914503421753077F
:1030700091F440914A0350914B03209146033091C3
:1030800047034217530739F481E09FBF882399F023
:10309000C150B9F1DACF40914A0350914B032091CE
:1030A0004803309149032150310981E04217530709
:1030B00061F380E0EACF89E699E30E945B142FB7C1
:1030C000F894E0914A03F0914B03808340914A03C6
:1030D00050914B038091460390914703481759073D
:1030E00029F4809144039091450305C080914A03DF
:1030F00090914B03019690934B0380934A032FBF0B
:10310000C7CF10926439FF91EF91CF91BF91AF91EA
:103110009F918F917F916F915F914F913F912F91EF
:103120000F900BBE0F900FBE0F901F90189568E187
:1031300087E09AE30E9434139FB7F8944091653971
:103140005091663960916739709168399FBF40939B
:10315000350350933603609337037093380380FF31
:1031600008C081E08093633980936239809361392C
:1031700006C0109263391092623910926139209121
:10318000633980915F3990916039211108C0209195
:103190006239211104C020916139222391F08F30CE
:1031A000910548F401969093603980935F3981E0EE
:1031B00080934E0312C081E080934E0380934D03B1
:1031C0000CC0009731F001979093603980935F397C
:1031D00002C010924D0310924E0380914D0388233C
:1031E00011F061E001C060E08EE00C94A71C40E8A3
:1031F00061E887E09AE30E94C9129FB7F894809132
:103200005E39882319F0815080935E3980915E3950
:10321000811105C08CB58F7B8CBD10925D399FBF2D
:1032200010924F0308958091400390914103A09123
:103230004203B0914303892B8A2B8B2BE1F08091C1
:103240003C0390913D03A0913E03B0913F03892B35
:103250008A2B8B2B81F080910301909104018F3F89
:10326000910549F080913A0390913B03892B19F025
:1032700010920001089581E0809300010895CF929B
:10328000DF92EF92FF92CF930E94131980914F0328
:1032900081116AC18091000181113AC180914C0372
:1032A000882309F435C1C0904003D0904103E090D9
:1032B0004203F090430361E08091153A0E94FD1CA7
:1032C00061E08091153A0E94A71C8091173A909175
:1032D000183A8F3F2FEF9207C9F061E00E94FD1C62
:1032E00060E08091173A0E94A71C6AE070E080E0DD
:1032F00090E00E94AB1D61E08091173A0E94A71CEC
:103300006AE070E080E090E00E94AB1DCFB7F894D7
:1033100080915E39811127C0E0EEF0E08491E0E019
:10332000F1E09491E82FF0E0EE0FFF1FE853FF4F1C
:10333000A591B491EC91E92321F461E084E00E942D
:10334000A71C61E084E00E94FD1C8CB580618CBDEF
:103350008CB580648CBD61E087E00E94FD1C61E05B
:1033600085E00E94FD1C80915E398F5F80935E39FD
:10337000CFBF62E487E09AE30E943413823109F000
:10338000CCC040E861E887E09AE30E94C912C70117
:10339000B6010E94971B40E06EE887E09AE30E9426
:1033A000C91240E06FE887E09AE30E94C9126CE01E
:1033B00087E09AE30E943413482F43606CE887E06B
:1033C0009AE30E94C91244E066EA87E09AE30E9409
:1033D000C9124FEF69E887E09AE30E94C91241E8F9
:1033E00061E887E09AE30E94C91281E080934F036D
:1033F0000E94151380914F0381110E9453178091F1
:103400004F03882331F080913A0390913B030E944F
:103410001E1C80914F03882331F08091010190910F
:1034200002010E945C1C80914F0381110E941A17B7
:103430006EE187E09AE30E943413482F44606EE9FE
:1034400087E09AE30E94C91281E495E19093243ABF
:103450008093233A60E08091193A0E94FD1C40E07D
:1034600060EC87E09AE30E94C9128091193A90912A
:103470001A3A8A30910539F08B30910531F0029774
:1034800031F08FEF05C080E003C081E001C082E031
:103490009FB7F894813029F058F0823021F484E00D
:1034A00008C082E006C082E080935D3980E001C000
:1034B00081E020915C39822B80935C3980915D3969
:1034C000811103C081E080935D399FBF8091193ADB
:1034D00090911A3A8A30910541F18B30910539F17A
:1034E000029749F426C08230C1F18091690083605F
:1034F00080936900E89A0E947B1C45E861E887E0B8
:103500009AE30E94C91283E090E00E94B1012CC0AE
:1035100083E090E00E94DE0127C081E00E942D013F
:1035200080E090E00E940F021FC080E003C081E0B5
:1035300001C082E0E82FF0E0EE0FFF1FE65FFE4FD4
:1035400028E333E131832083813069F6809169007B
:103550008C6080936900E99ACECF80916900806386
:1035600080936900EA9AC7CF80E0CF91FF90EF90F7
:10357000DF90CF9008956FB7F894FC014481558196
:10358000268137816FBF81E04217530709F080E041
:1035900008953FB7F8948091263A9091273AA091E8
:1035A000283AB091293A26B5A89B05C02F3F19F0BB
:1035B0000196A11DB11D3FBFBA2FA92F982F8827B3
:1035C000820F911DA11DB11DBC01CD0142E0660F0E
:1035D000771F881F991F4A95D1F70895CF92DF92E0
:1035E000EF92FF920F931F93CF93DF936AE187E0EF
:1035F0009AE30E943413C82FD0E069E187E09AE390
:103600000E943413682F880F770B880B990B0E9448
:10361000832720E030E040E85EE30E94E2270E943A
:10362000072A6B017C018B0160911B3A70911C3A57
:1036300080911D3A90911E3A0E94832724ED30E834
:1036400043E45EE40E947C27BE0187FD03C06D5900
:10365000710902C0645A710917FF04C0CB018C0DB7
:103660009D1D0FC0072E000C880B990B0E9483270D
:1036700020EB32E748E85FE30E94E2270E94072A36
:10368000CB01DF91CF911F910F91FF90EF90DF90D1
:10369000CF9008956DE187E09AE30E943413E82FFC
:1036A000F0E084E0F595E7958A95E1F7EA30F105D9
:1036B000F8F4EA5BFF4F0C942D2960EA78E21EC013
:1036C00060E471E51BC062E17AE718C064EE72EA5B
:1036D00015C064E274EF12C068E478EE81E00FC0B8
:1036E00060E970ED83E00BC060E271EA87E007C03B
:1036F000089568E77EE102C060EF7CE380E090E03F
:10370000089543E861E887E09AE30E94C91262E104
:1037100087E09AE30E94341383FFF9CF48E062E91F
:1037200087E09AE30E94C91281E090E00895AF9289
:10373000BF92CF92DF92EF92FF920F931F93CF939E
:1037400060931B3A70931C3A80931D3A90931E3AF3
:103750006B017C01FF0CCC08DC2C76019B01AC01D9
:103760006C2D7C2D8C2D9C2D03E10E94C729A12C52
:10377000E8E4BE2EF8EECF2EDD24D394E12CF12C1C
:1037800000E010E00E946A29C22FC22ED32E7A01D7
:10379000A7016627772766E887E09AE30E94C912A7
:1037A00077276F2D5E2D4D2D67E887E09AE30E9405
:1037B000C9124C2F68E887E09AE3CF911F910F91CF
:1037C000FF90EF90DF90CF90BF90AF900C94C91214
:1037D000CF92DF92EF92FF926EE187E09AE30E9430
:1037E0003413F82E0E944A1BF2942FE0F22221E0BB
:1037F00030E0690102C0CC0CDD1CFA94E2F70D2C1C
:10380000000CEE08FF0828EE33E040E050E00E9494
:10381000B628C701B6010E94B628213131054105FD
:10382000510514F04CE001C044E066EA87E09AE3F9
:10383000FF90EF90DF90CF900C94C912CF93DF935D
:10384000EC01863091052CF08D3091058CF40697B3
:1038500089F445EC61EB87E09AE30E94C9124CE0E1
:1038600067EB87E09AE30E94C912C6E0D0E00EC081
:10387000CCE0D0E043EC61EB87E09AE30E94C91210
:103880004AE067EB87E09AE30E94C9126EE187E0A5
:103890009AE30E9434138F7094E0CC0FDD1F9A9549
:1038A000E1F74C2F482B6EE987E09AE30E94C9129A
:1038B000DF91CF910C94E81BCF93DF938530910576
:1038C00034F0EC0109972CF0C8E0D0E002C0C5E06C
:1038D000D0E06DE187E09AE30E9434132497CC0F87
:1038E000DD1F817F4C2F482B6DE987E09AE3DF9144
:1038F000CF910C94C9121092223A1092213A6DE1A4
:1039000087E09AE30E943413482F4E7F6DE987E0E9
:103910009AE30C94C91241E861E887E09AE30E94B7
:10392000C9120E947B1C40E06DE887E09AE30E9488
:10393000C91240E062EA87E09AE30E94C91281E07E
:1039400090E00895682F89E699E30C94B514362F1A
:1039500090E0FC01E45EFE4F4491FC01E450FF4F17
:103960002491FC01E452FF4F8491882309F444C060
:10397000442371F150E0FA013197EA30F10540F546
:10398000E05BFF4F0C942D29909180009F7703C03E
:10399000909180009F7D909380001AC094B59F778E
:1039A00002C094B59F7D94BD13C09091B0009F77E5
:1039B00003C09091B0009F7D9093B00009C090919A
:1039C00090009F7703C0909190009F7D909390000E
:1039D000E82FF0E0EE0FFF1FEE52FF4FA591B491DC
:1039E0009FB7F894311104C08C912095282302C010
:1039F000EC912E2B2C939FBF0895CF93DF9390E0F3
:103A0000FC01E450FF4F2491FC01E452FF4F8491EC
:103A1000882361F190E0880F991FFC01E853FF4F64
:103A2000C591D491FC01EE52FF4FA591B491611163
:103A300009C09FB7F8948881209582238883EC91F0
:103A40002E230BC0623061F49FB7F8948881322F27
:103A5000309583238883EC912E2B2C939FBF06C037
:103A60008FB7F894E8812E2B28838FBFDF91CF91F9
:103A700008951F93CF93DF93182FEB0161E00E940D
:103A8000FD1C209711F460E004C0CF3FD10539F44C
:103A900061E0812FDF91CF911F910C94A71CE12F42
:103AA000F0E0E45EFE4FE4918E2F90E0FC01319750
:103AB000EA30F10508F046C0E65AFF4F0C942D2974
:103AC00084B5806884BDC7BD42C084B5806284BDB2
:103AD000C8BD3DC080918000806880938000D093F5
:103AE0008900C093880033C08091800080628093F9
:103AF0008000D0938B00C0938A0029C08091B000D1
:103B000080688093B000C093B30021C08091B00062
:103B100080628093B000C093B40019C0809190007F
:103B2000806880939000D0939900C09398000FC054
:103B300080919000806280939000D0939B00C0930E
:103B40009A0005C0C038D1050CF0A2CF9CCFDF9100
:103B5000CF911F9108958F929F92AF92BF92CF9273
:103B6000DF92EF92FF926B017C010E94C91A4B0118
:103B70005C01C114D104E104F104F1F00E94C91AFE
:103B8000DC01CB0188199909AA09BB09883E934039
:103B9000A105B10570F321E0C21AD108E108F108CE
:103BA00088EE880E83E0981EA11CB11CC114D104BC
:103BB000E104F10419F7DDCFFF90EF90DF90CF9093
:103BC000BF90AF909F908F9008951F920F920FB665
:103BD0000F9211242F933F938F939F93AF93BF9393
:103BE0008091653990916639A0916739B0916839B3
:103BF0003091253A23E0230F2D3720F40196A11DA3
:103C0000B11D05C026E8230F0296A11DB11D20930A
:103C1000253A8093653990936639A0936739B093BC
:103C200068398091263A9091273AA091283AB0912C
:103C3000293A0196A11DB11D8093263A9093273A07
:103C4000A093283AB093293ABF91AF919F918F9159
:103C50003F912F910F900FBE0F901F901895CF930B
:103C6000DF93CDB7DEB7C859D1090FB6F894DEBFE0
:103C70000FBECDBF789484B5826084BD84B5816069
:103C800084BD85B5826085BD85B5816085BD809127
:103C90006E00816080936E0010928100809181009F
:103CA0008260809381008091810081608093810097
:103CB000809180008160809380008091B100846059
:103CC0008093B1008091B00081608093B0008091BA
:103CD0009100826080939100809191008160809337
:103CE00091008091900081608093900080917A0093
:103CF000846080937A0080917A00826080937A0059
:103D000080917A00816080937A0080917A00806847
:103D100080937A001092C10080E480937C008091AF
:103D20007A00806480937A0080917A0086FDFCCFCF
:103D3000609178008091790070E0782B072E000C5C
:103D4000880B990B611571058105910511F00E9491
:103D50007327ECE3F7E081E098E1DF019C011D921D
:103D600021503040E1F7F0934503E0934403F09392
:103D70004B03E0934A03F0934903E09348038CE339
:103D80009FE19093470380934603E0917939F09146
:103D90007A3982E08083E0917539F091763910822A
:103DA000E0917739F091783980E180831092813900
:103DB000E0917D39F0917E3986E08083E0917B3916
:103DC000F0917C39808180618083E0917B39F09132
:103DD0007C39808188608083E0917B39F0917C39E7
:103DE000808180688083E0917B39F0917C3980818B
:103DF0008F7D80831092900089E18093910080E80C
:103E00009EE3909397008093960080E280937100E8
:103E100061E08EE00E94FD1C61E08FE00E94FD1CCD
:103E200084EF91E0E1E4F1E0DF019C011D9221507B
:103E30003040E1F784E0E7E3F1E2DF011D928A958B
:103E4000E9F780E098E1EBE3F1E2DF019C011D92EC
:103E500021503040E1F7E6E4F5E086EF91E0DF0144
:103E60009C011D9221503040E1F7F0934D39E093D1
:103E70004C39F0935339E0935239F0935139E09330
:103E800050392AE337E030934F3920934E39E0E53B
:103E9000F3E0DF019C011D9221503040E1F7F093E7
:103EA0003F39E0933E39F0934539E0934439F0933C
:103EB0004339E093423984E495E09093413980930B
:103EC000403984E090E09093163A8093153A83E06D
:103ED00090E09093183A8093173A82E090E09093A4
:103EE0001A3A8093193A83ED9FE00E9407188337AE
:103EF00039F488E39FE00E940718833009F404C571
:103F000010924C03A12C98E1B92E412C512C320176
:103F1000539480914F03882309F427C12FB7F89455
:103F20008091653990916639A0916739B09168396F
:103F30002FBF409135035091360360913703709144
:103F40003803841B950BA60BB70B0397A105B1058E
:103F500010F00E94971880915739882309F475C191
:103F600010915639111102C00E94971880914E038A
:103F70008111F7C080914D038111F3C0112331F0FD
:103F800062E370E080E090E00E94AB1D0E94971811
:103F900080914E03811159C110925639809131217F
:103FA0008111D6C081E0809331218CE499E30E9495
:103FB000BB1A8111CDC0E0915039F09151398091F7
:103FC0004E3990914F39E817F90729F480914C390F
:103FD00090914D3906C0E0915039F0915139CF019F
:103FE0000296909351398093503920813181E0912C
:103FF0004239F09143398091403990914139E81725
:10400000F90729F480913E3990913F3906C0E0913B
:104010004239F0914339CF0102969093433980930E
:10402000423900811181C8010197843F914008F015
:10403000BCCFEDE3FFE12D533F41C9018E0F9F1F20
:10404000B5010E941929DC01A55CBE4D8C918193BC
:10405000CF018D539F418017910778F380914F03D3
:10406000882309F46DC08091390361E081114BC050
:104070008FE00E94A71C0E942527A30192010E94A5
:10408000B628607F962E0F3F110510F06160962EC6
:104090000E948B1C692D87E09AE30E94CC008DE37F
:1040A000C82E8FE1D82EEE24E394F12CC6018D5357
:1040B0009F4180179107C0F4D6016D916D0187E093
:1040C0009AE30E94CC00BFEFEB1AFB0AEFEFEE166B
:1040D000F10461F70E94811B0E948B1C692D87E00F
:1040E0009AE30E94CC00DFCF0E94811B60E08FE04A
:1040F0000E94A71C0E947B1C45E861E887E09AE3C8
:104100000E94C91252CF8FE00E94A71C0F3F1105D9
:1041100019F010F00FEF10E00E948B1CADE3EA2EB7
:10412000AFE1FA2EC7018D539F4180179107E0F64A
:10413000D7016D917D0187E09AE30E94CC00F2CF18
:1041400082E00E942D0185E090E00E940F022DCFB9
:104150001092573910924B3910924A3910923121EE
:1041600074C081E08093563970C020914C038091D7
:10417000332190913421A0913521B09136210196BF
:10418000A11DB11D222381F1893FEAE29E07A1050D
:10419000B10548F48093332190933421A0933521C5
:1041A000B093362152C010923321109234211092D4
:1041B0003521109236216091063A623010F481E088
:1041C00003C0683218F08FEF809332218091322142
:1041D000680F6093063A70E08EE00E94391D60E03F
:1041E0008FE00E94A71C31C0893FFAE29F07A1051A
:1041F000B10548F48093332190933421A093352165
:10420000B093362120C010923321109234211092A5
:104210003521109236216091063A623010F481E027
:1042200003C0683218F08FEF8093322180913221E1
:10423000680F6093063A70E08FE00E94391D60E0DD
:104240008EE00E94A71C0E94F71884E493E00E946D
:10425000BB1A811156C381E080935539DD24D39474
:10426000FEEFCF2E01E018E184E493E00E94BB1A38
:10427000811145C3E0914803F091490380914603C1
:1042800090914703E817F90729F48091440390912E
:10429000450306C0E0914803F0914903CF01019620
:1042A0009093490380934803408180915439882337
:1042B00069F1403CB9F58091060181112AC0109244
:1042C0005439809150399091513940914C395091E5
:1042D0004D398417950761F4209152393091533943
:1042E00080914E3990914F392817390709F4BCCF86
:1042F00020915239309153398091503990915139F0
:1043000002972817390709F032C4AECF403C09F0B4
:10431000ABCFD0925439C092060110923D39109221
:104320003C39A2CF20913C3930913D39243F81E086
:10433000380708F099CF909106012115310529F42D
:104340009E3F19F4409306018FCF911120C04B3D41
:1043500019F4D0923B3988CF80913B39882349F0BA
:104360004C3D21F04D3D19F44BED01C040EC109255
:104370003B39809157398A3F08F076CF80914A398E
:1043800090914B398115984108F467C46DCF9130F5
:1043900009F04AC04B3D19F490933B3917C0809106
:1043A0003B39882349F04C3D21F04D3D19F44BED4C
:1043B00001C040EC10923B39C901019690933D3900
:1043C00080933C39F901E95CFE4D408380913C3992
:1043D00090913D39049709F047CF60913721709152
:1043E00038218091392190913A210E943629611516
:1043F00071058105910519F40E94550135CF60932F
:1044000040037093410380934203909343032091B0
:104410000501213189F720914F03222369F30E947E
:10442000971B0E941A17E8CF923009F048C04B3D05
:1044300019F4D0923B3917C080913B39882349F059
:104440004C3D21F04D3D19F44BED01C040EC109274
:104450003B39C901019690933D3980933C39F9016C
:10446000E95CFE4D408380913C3990913D39049741
:1044700009F0FACE6091372170913821809139216D
:1044800090913A210E9436296115710581059105A7
:1044900019F40E947101E8CE60933C0370933D03D0
:1044A00080933E0390933F0380910501813189F70A
:1044B00080914F03882369F30E945317EACF93300A
:1044C000B9F44F3F19F40E94E600CECE423118F401
:1044D000842F90E002C081E190E0909304018093EA
:1044E000030180910501813171F70E941513EBCF13
:1044F0009430F9F44F3F19F40E940A01B5CE4630CA
:1045000038F0842F90E04D3028F08CE090E002C02D
:1045100086E090E090933B0380933A03209105015D
:10452000213151F720914F03222331F30E941E1CA9
:10453000E3CF9530F9F44F3F19F40E94F80094CE80
:10454000453038F0842F90E0493028F088E090E042
:1045500002C085E090E090930201809301012091D8
:104560000501213151F720914F03222331F30E949D
:104570005C1CE3CF963079F44F3F21F0411105C028
:104580000E94F7180E941C016FCE413009F06CCEDA
:104590000E943F19F7CF913239F480EC90E00E94ED
:1045A000A21C81E290E008C09232A9F480EC90E075
:1045B0000E94A21C82E290E00E94A21C80E00E9465
:1045C000410180E00E94410180E00E94410180E0C1
:1045D0000E94410176C3933219F40E949D0144CE9A
:1045E000973071F40E94131980EC90E00E94A21C95
:1045F00087E090E00E94A21C8091000190E05FC3E0
:10460000903319F4842F90E069C19034D1F48091F3
:104610004F03882339F06CE287E09AE30E94341359
:10462000F82E01C0F12C80EC90E00E94A21C80E4E6
:1046300090E00E94A21C6F2D89E699E30E94B514B8
:1046400040C3983071F4433709F00ECE80EC90E00F
:104650000E94A21C88E090E00E94A21C86E490E0E8
:104660002EC39E30B9F4413019F44093390304C08D
:10467000411102C01092390380EC90E00E94A21C0C
:104680008EE090E00E94A21C80913903882309F4F7
:1046900014C308C39F30B1F4809157398A3F08F0A2
:1046A00004C380914A3990914B398115984108F0A3
:1046B000FCC280EC90E00E94A21C8FE090E00E947F
:1046C000A21CF0C29935E1F4483F09F0CDCD82E358
:1046D00090E00E940F0208E31FE06FEFC8010E9404
:1046E00071260F5F1F4F0115E0E11E07B1F761E072
:1046F0008FE00E94A71C60E08EE00E94A71CF7CF0D
:104700009135C9F480EC90E00E94A21C81E590E014
:104710000E94A21CE8E3EE2EEFE0FE2EC7010E94ED
:1047200007180E944101FFEFEF1AFF0AE11420E190
:10473000F206A1F7C6C2923581F54B3D19F4D0922D
:104740003B3917C080913B39882349F04C3D21F01B
:104750004D3D19F44BED01C040EC10923B39C901BD
:10476000019690933D3980933C39F901E95CFE4D07
:10477000408380913C3990913D39029709F074CD86
:10478000F090372183ED9FE00E940718833709F0EE
:104790009DC283E00E942D0167CD903579F480ECB5
:1047A00090E00E94A21C80E590E00E94A21C81E0A3
:1047B00090E00E94A21C80E190E081C2933509F054
:1047C00095C080914C03882309F48BC080914F03DE
:1047D000882309F486C060913A0384ED9FE00E942B
:1047E00071266091010185ED9FE00E947126609124
:1047F000030186ED9FE00E94712680913C03909119
:104800003D03A0913E03B0913F036B2F772788278C
:10481000992787ED9FE00E94712680913C0390913B
:104820003D03A0913E03B0913F03BD018827992726
:1048300088ED9FE00E94712680913C0390913D039A
:10484000A0913E03B0913F03692F7A2F8B2F9927B8
:1048500089ED9FE00E94712660913C038AED9FE004
:104860000E9471268091400390914103A0914203E0
:10487000B09143036B2F7727882799278BED9FE013
:104880000E9471268091400390914103A0914203C0
:10489000B0914303BD01882799278CED9FE00E94CA
:1048A00071268091400390914103A0914203B09101
:1048B0004303692F7A2F8B2F99278DED9FE00E945C
:1048C0007126609140038EED9FE00E94712663E7A0
:1048D0008FED9FE00E9471268AE090E00E94B10176
:1048E000C3CC8AE090E00E94DE01BECC943509F092
:1048F000BBCC60E08FED9FE00E947126B5CC10929A
:1049000055390E94241505CB89E39FE00E940718C2
:1049100080934001843E09F0F3CA8AE39FE00E943D
:10492000071881508E3F08F0EBCA8BE090E00E94A0
:104930003D2A7C018C0138E3C32E3FE0D32EC60113
:104940000E940718D8018D938D01BFEFCB1ADB0AA7
:10495000E3E4CE16EFE0DE0691F780E190E00E94FE
:104960003D2A8C0181E093E2A5E4B7E689879A8726
:10497000AB87BC8789E89BEAADECBFEE8D879E874D
:10498000AF87B88B8EEF9CEDAAEBB8E9898B9A8B39
:10499000AB8BBC8B86E794E5A2E3B0E18D8B9E8B5D
:1049A000AF8BB88F1D821E821F821886FE01E75AC8
:1049B000FF4F80E4DF01282F1D922A95E9F7BE0101
:1049C000675E7F4FDB011D928A95E9F78BE0F70167
:1049D000DB0101900D928A95E1F780E88CA3FE013E
:1049E000B5968CE2DF011D928A95E9F788E590E0A3
:1049F000A0E0B0E089839A83AB83BC8362968FAFDB
:104A0000629740E450E0CE0101960E944A02398547
:104A10002A859B858C85F80130832183928383834B
:104A20003D852E859F85888934832583968387835A
:104A300039892A899B898C89308721879287838746
:104A40003D892E899F89888D34872587968787871A
:104A50003801BB24B394C6010E940718D3019D916D
:104A60003D018913B12CBFEFCB1ADB0AE3E5CE166B
:104A7000EFE0DE0681F7C8010E94D52AC7010E9437
:104A8000D52ABB2009F43ECA81E080934C038FED08
:104A90009FE00E940718833709F034CA84ED9FE035
:104AA0000E94071890E090933B0380933A0385EDB2
:104AB0009FE00E94071890E090930201809301010B
:104AC00086ED9FE00E94071890E090930401809388
:104AD00003018BED9FE00E940718182F8CED9FE0DB
:104AE0000E940718C82ED12CE12CF12C7601DD2470
:104AF000CC24F12A8DED9FE00E940718182F8EED2F
:104B00009FE00E940718C82AD12AC0924003D09281
:104B10004103E0924203F092430387ED9FE00E943D
:104B20000718182F88ED9FE00E940718C82ED12C77
:104B3000E12CF12C7601DD24CC24F12A89ED9FE0D3
:104B40000E940718182F8AED9FE00E940718C82AB4
:104B5000D12AC0923C03D0923D03E0923E03F092F2
:104B60003F0382E1809305010E943F19CBC98091E8
:104B70004A3990914B398115984108F075CB2091B5
:104B80004839309149398091463990914739019798
:104B900010F48FEF97E12817390781F028173907AC
:104BA00020F4821B930B019605C0B801621B730BA6
:104BB000860F971F009709F457CB02C081E090E061
:104BC000609157396F5F60935739E0915239F09196
:104BD0005339318320836091523970915339209138
:104BE0004E3930914F396217730729F45093533976
:104BF000409352390AC020915239309153392E5F77
:104C00003F4F3093533920935239E0914439F0911A
:104C10004539918380832091443930914539809181
:104C20004039909141392817390729F480913E394C
:104C300090913F3905C08091443990914539029651
:104C40009093453980934439809146399091473902
:104C5000909349398093483907CB20914A39309154
:104C60004B392F5F3F4F30934B3920934A39209176
:104C7000463930914739C90101969093473980935D
:104C80004639F901E55CFE4D4083809146399091AB
:104C900047398115984109F0E7CA109247391092B7
:104CA0004639E2CA81E090E00AC080EC90E00E94C0
:104CB000A21C8FE090E00E94A21C80E090E00E9485
:104CC000A21C80EC90E00E94A21CCECA67EC6F157B
:104CD00008F45FCD8F2D90E060913821885C904F73
:104CE0000BCE1F93CF93DF93EC01162F0E94A028C9
:104CF000181739F0612FCE01DF91CF911F910C94DD
:104D0000A828DF91CF911F910895E9E6F9E3138276
:104D1000128288EE93E0A0E0B0E084839583A683BE
:104D2000B7838EE191E09183808385EC90E0958755
:104D3000848784EC90E09787868780EC90E0918B65
:104D4000808B81EC90E0938B828B82EC90E0958B52
:104D5000848B86EC90E0978B868B118E128E138E4F
:104D6000148E81E08093063AE7E0FAE31382128220
:104D700021E331E03183208390E5948785878AE0C1
:104D800090E09787868789E090E0918B808B82E026
:104D900090E0938B828B148A158A168A178A118E5B
:104DA000108E138E128E158E148E1482158216821A
:104DB000178208958F929F92AF92BF92CF92DF9207
:104DC000EF92FF92CF93DF93EC01688179818A8122
:104DD0009B81611571058105910521F464E279EDEE
:104DE0008BE597E02DE133EF41E050E00E94B628DB
:104DF00049015A019B01AC01A7EAB1E40E94D52800
:104E00006B017C01ACEEB4EFA50194010E94E32894
:104E1000DC01CB018C0D9D1DAE1DBF1DB7FF03C076
:104E20000197A109B04888839983AA83BB83BC01F9
:104E3000CD019F77DF91CF91FF90EF90DF90CF90E2
:104E4000BF90AF909F908F9008958F929F92AF9256
:104E5000BF92CF92DF92EF92FF926091100170911A
:104E60001101809112019091130161157105810565
:104E7000910521F464E279ED8BE597E02DE133EFC4
:104E800041E050E00E94B62849015A019B01AC0163
:104E9000A7EAB1E40E94D5286B017C01ACEEB4EF27
:104EA000A50194010E94E328DC01CB018C0D9D1D1E
:104EB000AE1DBF1DB7FF03C00197A109B048809385
:104EC000100190931101A0931201B0931301BC0142
:104ED000CD019F77FF90EF90DF90CF90BF90AF9084
:104EE0009F908F90089560931001709311018093AB
:104EF00012019093130108950E94BE2708F481E0E7
:104F00000895E89409C097FB3EF4909580957095BC
:104F100061957F4F8F4F9F4F9923A9F0F92F96E905
:104F2000BB279395F695879577956795B795F1117A
:104F3000F8CFFAF4BB0F11F460FF1BC06F5F7F4F17
:104F40008F4F9F4F16C0882311F096E911C0772329
:104F500021F09EE8872F762F05C0662371F096E832
:104F6000862F70E060E02AF09A95660F771F881F01
:104F7000DAF7880F9695879597F90895990F0008A5
:104F8000550FAA0BE0E8FEEF16161706E807F9071B
:104F9000C0F012161306E407F50798F0621B730BB6
:104FA000840B950B39F40A2661F0232B242B252B37
:104FB00021F408950A2609F4A140A6958FEF811DDA
:104FC000811D08950E94F5270C9466280E94582898
:104FD00038F00E945F2820F0952311F00C944F28A0
:104FE0000C94552811240C949A280E94772870F369
:104FF000959FC1F3950F50E0551F629FF001729F7E
:10500000BB27F00DB11D639FAA27F00DB11DAA1F8C
:10501000649F6627B00DA11D661F829F2227B00DD9
:10502000A11D621F739FB00DA11D621F839FA00D64
:10503000611D221F749F3327A00D611D231F849FB4
:10504000600D211D822F762F6A2F11249F5750400B
:105050009AF0F1F088234AF0EE0FFF1FBB1F661F86
:10506000771F881F91505040A9F79E3F510580F04F
:105070000C944F280C949A285F3FE4F3983ED4F3A5
:10508000869577956795B795F795E7959F5FC1F7F3
:10509000FE2B880F911D9695879597F9089597F99E
:1050A0009F6780E870E060E008959FEF80EC0895CE
:1050B00000240A94161617061806090608950024F7
:1050C0000A9412161306140605060895092E039471
:1050D000000C11F4882352F0BB0F40F4BF2B11F4E5
:1050E00060FF04C06F5F7F4F8F4F9F4F089557FD44
:1050F0009058440F551F59F05F3F71F04795880F46
:1051000097FB991F61F09F3F79F0879508951216DC
:1051100013061406551FF2CF4695F1DF08C0161688
:1051200017061806991FF1CF869571056105089439
:105130000895E894BB2766277727CB0197F9089550
:10514000F999FECF92BD81BDF89A992780B508954F
:10515000262FF999FECF1FBA92BD81BD20BD0FB693
:10516000F894FA9AF99A0FBE01960895052E97FBC6
:105170001EF400940E94CD2857FD07D00E94E82815
:1051800007FC03D04EF40C94CD28509540953095F3
:1051900021953F4F4F4F5F4F0895909580957095A3
:1051A00061957F4F8F4F9F4F08950E940A29A59FB9
:1051B000900DB49F900DA49F800D911D1124089512
:1051C000B7FF0C94D5280E94D528821B930B089515
:1051D000A1E21A2EAA1BBB1BFD010DC0AA1FBB1FFB
:1051E000EE1FFF1FA217B307E407F50720F0A21B6D
:1051F000B30BE40BF50B661F771F881F991F1A94DA
:1052000069F760957095809590959B01AC01BD0103
:10521000CF010895A29FB001B39FC001A39F700D5D
:10522000811D1124911DB29F700D811D1124911DAE
:105230000895AA1BBB1B51E107C0AA1FBB1FA617DD
:10524000B70710F0A61BB70B881F991F5A95A9F72F
:1052500080959095BC01CD010895EE0FFF1F0024AD
:10526000001C0BBE0790F691E02D09946927962744
:1052700069277827872778270895E894DF93CF93C5
:10528000FC01DB010E940A297F936F93E9019A01D7
:10529000AC01BF93AF933F932F93DF010E940A2984
:1052A00026F46C1B7D0B820B930B9E01EB01FC0122
:1052B0000E94FE29AF91BF912F913F910E94FE293C
:1052C000BE01CF01F9012F913F91CF91DF91089558
:1052D000689401C0E8948F929F92CF93DF930E94CD
:1052E0007629DF91CF919F908F90089588249924FB
:1052F000F401E401B0E49F93AA279A158B049C045F
:10530000ED05FE05CF05D007A10798F4AD2FDC2FE2
:10531000CF2FFE2FE92D982C892E982F872F762FAF
:10532000652F542F432F322F2227B85031F7BF91CA
:1053300027C01B2EBF91BB27220F331F441F551FB1
:10534000661F771F881F991F881C991CEE1FFF1F5F
:10535000CC1FDD1FAA1FBB1F8A149B04EC05FD0593
:10536000CE05DF05A007B10748F08A189B08EC09B5
:10537000FD09CE09DF09A00BB10B21601A94E1F6FB
:105380002EF49401AF01BE01CD01000C08950F93DE
:10539000083090F0982F872F762F652F542F432FAA
:1053A000322F22270850F4CF220F331F441F551FDE
:1053B000661F771F881F991F0A95B2F70F910895EE
:1053C00097FB10F8169400080F93083098F00850D7
:1053D000232F342F452F562F672F782F892F902D6D
:1053E000F4CF059497958795779567955795479549
:1053F000379527950A95AAF70F9108950E940A29D3
:10540000460F571FC81FD91F08F4319608950E94F0
:105410000E2A6894B1110C949A2808950E947F284E
:1054200088F09F5798F0B92F9927B751B0F0E1F065
:10543000660F771F881F991F1AF0BA95C9F714C015
:10544000B13091F00E949928B1E008950C94992808
:10545000672F782F8827B85F39F0B93FCCF386954E
:1054600077956795B395D9F73EF4909580957095AB
:1054700061957F4F8F4F9F4F08950F931F93CF9349
:10548000DF938230910510F482E090E0E0912C3AB5
:10549000F0912D3A20E030E0A0E0B0E0309719F133
:1054A000408151810281138148175907C8F0841740
:1054B000950769F4109731F012960C931297139692
:1054C0001C9327C000932C3A10932D3A22C021152B
:1054D000310519F04217530718F49A01BD01EF0185
:1054E000DF01F801DBCF21153105F9F0281B390B5D
:1054F0002430310580F48A819B816115710521F08A
:10550000FB019383828304C090932D3A80932C3ABD
:10551000FE01329644C0FE01E20FF31F8193919386
:1055200022503109398328833AC020912A3A309198
:105530002B3A232B41F4209116013091170130931F
:105540002B3A20932A3A209114013091150121150C
:10555000310541F42DB73EB7409118015091190122
:10556000241B350BE0912A3AF0912B3AE217F3070E
:10557000A0F42E1B3F0B2817390778F0AC014E5FC3
:105580005F4F2417350748F04E0F5F1F50932B3A9B
:1055900040932A3A8193919302C0E0E0F0E0CF017A
:1055A000DF91CF911F910F910895CF93DF930097D3
:1055B00009F481C0FC01329713821282A0912C3A27
:1055C000B0912D3A109781F420813181820F931F81
:1055D00020912A3A30912B3A2817390751F5F09348
:1055E0002B3AE0932A3A67C0ED0120E030E0CE1775
:1055F000DF0740F44A815B819E0141155105F1F0BE
:10560000EA01F5CFD383C28340815181840F951F76
:10561000C817D90759F488819981840F951F02967C
:10562000918380838A819B819383828321153105B5
:1056300029F4F0932D3AE0932C3A3DC0E901FB8325
:10564000EA8349915991C40FD51FEC17FD0761F406
:1056500080819181840F951F0296E9019983888347
:10566000828193819B838A83E0E0F0E012968D91A2
:105670009C911397009719F0FD01DC01F7CF8D91F4
:105680009C9111979D012E5F3F4F820F931F209198
:105690002A3A30912B3A2817390769F4309729F4C0
:1056A00010922D3A10922C3A02C013821282B093BB
:1056B0002B3AA0932A3ADF91CF91089581E090E0B0
:0A56C000F8940C94632BF894FFCFCC
:1056CA00010500FF0011FEDCFEFF21142114211444
:1056DA000100000000002E3A200000000000B5146E
:1056EA0022144C1402157D145B146F14010000007F
:1056FA0000CC00E613E300CB00D8139C137613000A
:00000001FF
